{
  "_format": "hh-sol-artifact-1",
  "contractName": "PunkKub",
  "sourceName": "contracts/PunkKub.sol",
  "abi": [
    {
      "inputs": [],
      "stateMutability": "nonpayable",
      "type": "constructor"
    },
    {
      "anonymous": false,
      "inputs": [
        {
          "indexed": true,
          "internalType": "address",
          "name": "owner",
          "type": "address"
        },
        {
          "indexed": true,
          "internalType": "address",
          "name": "approved",
          "type": "address"
        },
        {
          "indexed": true,
          "internalType": "uint256",
          "name": "tokenId",
          "type": "uint256"
        }
      ],
      "name": "Approval",
      "type": "event"
    },
    {
      "anonymous": false,
      "inputs": [
        {
          "indexed": true,
          "internalType": "address",
          "name": "owner",
          "type": "address"
        },
        {
          "indexed": true,
          "internalType": "address",
          "name": "operator",
          "type": "address"
        },
        {
          "indexed": false,
          "internalType": "bool",
          "name": "approved",
          "type": "bool"
        }
      ],
      "name": "ApprovalForAll",
      "type": "event"
    },
    {
      "anonymous": false,
      "inputs": [
        {
          "indexed": true,
          "internalType": "address",
          "name": "from",
          "type": "address"
        },
        {
          "indexed": true,
          "internalType": "address",
          "name": "to",
          "type": "address"
        },
        {
          "indexed": true,
          "internalType": "uint256",
          "name": "tokenId",
          "type": "uint256"
        }
      ],
      "name": "Transfer",
      "type": "event"
    },
    {
      "inputs": [
        {
          "internalType": "uint256",
          "name": "_tokenId",
          "type": "uint256"
        }
      ],
      "name": "_tokenIdToHash",
      "outputs": [
        {
          "internalType": "string",
          "name": "",
          "type": "string"
        }
      ],
      "stateMutability": "view",
      "type": "function"
    },
    {
      "inputs": [
        {
          "internalType": "uint256",
          "name": "_traitTypeIndex",
          "type": "uint256"
        },
        {
          "components": [
            {
              "internalType": "string",
              "name": "traitName",
              "type": "string"
            },
            {
              "internalType": "string",
              "name": "traitType",
              "type": "string"
            },
            {
              "internalType": "string",
              "name": "pixels",
              "type": "string"
            },
            {
              "internalType": "uint256",
              "name": "pixelCount",
              "type": "uint256"
            }
          ],
          "internalType": "struct PunkKub.Trait[]",
          "name": "traits",
          "type": "tuple[]"
        }
      ],
      "name": "addTraitType",
      "outputs": [],
      "stateMutability": "nonpayable",
      "type": "function"
    },
    {
      "inputs": [
        {
          "internalType": "address",
          "name": "to",
          "type": "address"
        },
        {
          "internalType": "uint256",
          "name": "tokenId",
          "type": "uint256"
        }
      ],
      "name": "approve",
      "outputs": [],
      "stateMutability": "nonpayable",
      "type": "function"
    },
    {
      "inputs": [
        {
          "internalType": "address",
          "name": "owner",
          "type": "address"
        }
      ],
      "name": "balanceOf",
      "outputs": [
        {
          "internalType": "uint256",
          "name": "",
          "type": "uint256"
        }
      ],
      "stateMutability": "view",
      "type": "function"
    },
    {
      "inputs": [
        {
          "internalType": "uint256",
          "name": "_tokenId",
          "type": "uint256"
        }
      ],
      "name": "burnForMint",
      "outputs": [],
      "stateMutability": "nonpayable",
      "type": "function"
    },
    {
      "inputs": [],
      "name": "clearTraits",
      "outputs": [],
      "stateMutability": "nonpayable",
      "type": "function"
    },
    {
      "inputs": [],
      "name": "currentTokenId",
      "outputs": [
        {
          "internalType": "uint256",
          "name": "",
          "type": "uint256"
        }
      ],
      "stateMutability": "view",
      "type": "function"
    },
    {
      "inputs": [
        {
          "internalType": "uint256",
          "name": "tokenId",
          "type": "uint256"
        }
      ],
      "name": "getApproved",
      "outputs": [
        {
          "internalType": "address",
          "name": "",
          "type": "address"
        }
      ],
      "stateMutability": "view",
      "type": "function"
    },
    {
      "inputs": [
        {
          "internalType": "string",
          "name": "_hash",
          "type": "string"
        }
      ],
      "name": "hashToMetadata",
      "outputs": [
        {
          "internalType": "string",
          "name": "",
          "type": "string"
        }
      ],
      "stateMutability": "view",
      "type": "function"
    },
    {
      "inputs": [
        {
          "internalType": "string",
          "name": "",
          "type": "string"
        }
      ],
      "name": "hashToMinted",
      "outputs": [
        {
          "internalType": "bool",
          "name": "",
          "type": "bool"
        }
      ],
      "stateMutability": "view",
      "type": "function"
    },
    {
      "inputs": [
        {
          "internalType": "string",
          "name": "_hash",
          "type": "string"
        }
      ],
      "name": "hashToSVG",
      "outputs": [
        {
          "internalType": "string",
          "name": "",
          "type": "string"
        }
      ],
      "stateMutability": "view",
      "type": "function"
    },
    {
      "inputs": [
        {
          "internalType": "address",
          "name": "owner",
          "type": "address"
        },
        {
          "internalType": "address",
          "name": "operator",
          "type": "address"
        }
      ],
      "name": "isApprovedForAll",
      "outputs": [
        {
          "internalType": "bool",
          "name": "",
          "type": "bool"
        }
      ],
      "stateMutability": "view",
      "type": "function"
    },
    {
      "inputs": [],
      "name": "mintPunkKub",
      "outputs": [],
      "stateMutability": "nonpayable",
      "type": "function"
    },
    {
      "inputs": [],
      "name": "name",
      "outputs": [
        {
          "internalType": "string",
          "name": "",
          "type": "string"
        }
      ],
      "stateMutability": "view",
      "type": "function"
    },
    {
      "inputs": [
        {
          "internalType": "uint256",
          "name": "tokenId",
          "type": "uint256"
        }
      ],
      "name": "ownerOf",
      "outputs": [
        {
          "internalType": "address",
          "name": "",
          "type": "address"
        }
      ],
      "stateMutability": "view",
      "type": "function"
    },
    {
      "inputs": [
        {
          "internalType": "address",
          "name": "from",
          "type": "address"
        },
        {
          "internalType": "address",
          "name": "to",
          "type": "address"
        },
        {
          "internalType": "uint256",
          "name": "tokenId",
          "type": "uint256"
        }
      ],
      "name": "safeTransferFrom",
      "outputs": [],
      "stateMutability": "nonpayable",
      "type": "function"
    },
    {
      "inputs": [
        {
          "internalType": "address",
          "name": "from",
          "type": "address"
        },
        {
          "internalType": "address",
          "name": "to",
          "type": "address"
        },
        {
          "internalType": "uint256",
          "name": "tokenId",
          "type": "uint256"
        },
        {
          "internalType": "bytes",
          "name": "_data",
          "type": "bytes"
        }
      ],
      "name": "safeTransferFrom",
      "outputs": [],
      "stateMutability": "nonpayable",
      "type": "function"
    },
    {
      "inputs": [
        {
          "internalType": "address",
          "name": "operator",
          "type": "address"
        },
        {
          "internalType": "bool",
          "name": "approved",
          "type": "bool"
        }
      ],
      "name": "setApprovalForAll",
      "outputs": [],
      "stateMutability": "nonpayable",
      "type": "function"
    },
    {
      "inputs": [
        {
          "internalType": "bytes4",
          "name": "interfaceId",
          "type": "bytes4"
        }
      ],
      "name": "supportsInterface",
      "outputs": [
        {
          "internalType": "bool",
          "name": "",
          "type": "bool"
        }
      ],
      "stateMutability": "view",
      "type": "function"
    },
    {
      "inputs": [],
      "name": "symbol",
      "outputs": [
        {
          "internalType": "string",
          "name": "",
          "type": "string"
        }
      ],
      "stateMutability": "view",
      "type": "function"
    },
    {
      "inputs": [
        {
          "internalType": "uint256",
          "name": "index",
          "type": "uint256"
        }
      ],
      "name": "tokenByIndex",
      "outputs": [
        {
          "internalType": "uint256",
          "name": "",
          "type": "uint256"
        }
      ],
      "stateMutability": "view",
      "type": "function"
    },
    {
      "inputs": [
        {
          "internalType": "uint256",
          "name": "",
          "type": "uint256"
        }
      ],
      "name": "tokenIdToHash",
      "outputs": [
        {
          "internalType": "string",
          "name": "",
          "type": "string"
        }
      ],
      "stateMutability": "view",
      "type": "function"
    },
    {
      "inputs": [
        {
          "internalType": "address",
          "name": "owner",
          "type": "address"
        },
        {
          "internalType": "uint256",
          "name": "index",
          "type": "uint256"
        }
      ],
      "name": "tokenOfOwnerByIndex",
      "outputs": [
        {
          "internalType": "uint256",
          "name": "",
          "type": "uint256"
        }
      ],
      "stateMutability": "view",
      "type": "function"
    },
    {
      "inputs": [
        {
          "internalType": "uint256",
          "name": "_tokenId",
          "type": "uint256"
        }
      ],
      "name": "tokenURI",
      "outputs": [
        {
          "internalType": "string",
          "name": "",
          "type": "string"
        }
      ],
      "stateMutability": "view",
      "type": "function"
    },
    {
      "inputs": [],
      "name": "totalSupply",
      "outputs": [
        {
          "internalType": "uint256",
          "name": "",
          "type": "uint256"
        }
      ],
      "stateMutability": "view",
      "type": "function"
    },
    {
      "inputs": [
        {
          "internalType": "uint256",
          "name": "",
          "type": "uint256"
        },
        {
          "internalType": "uint256",
          "name": "",
          "type": "uint256"
        }
      ],
      "name": "traitTypes",
      "outputs": [
        {
          "internalType": "string",
          "name": "traitName",
          "type": "string"
        },
        {
          "internalType": "string",
          "name": "traitType",
          "type": "string"
        },
        {
          "internalType": "string",
          "name": "pixels",
          "type": "string"
        },
        {
          "internalType": "uint256",
          "name": "pixelCount",
          "type": "uint256"
        }
      ],
      "stateMutability": "view",
      "type": "function"
    },
    {
      "inputs": [
        {
          "internalType": "address",
          "name": "from",
          "type": "address"
        },
        {
          "internalType": "address",
          "name": "to",
          "type": "address"
        },
        {
          "internalType": "uint256",
          "name": "tokenId",
          "type": "uint256"
        }
      ],
      "name": "transferFrom",
      "outputs": [],
      "stateMutability": "nonpayable",
      "type": "function"
    },
    {
      "inputs": [
        {
          "internalType": "address",
          "name": "_newOwner",
          "type": "address"
        }
      ],
      "name": "transferOwnership",
      "outputs": [],
      "stateMutability": "nonpayable",
      "type": "function"
    },
    {
      "inputs": [
        {
          "internalType": "address",
          "name": "_wallet",
          "type": "address"
        }
      ],
      "name": "walletOfOwner",
      "outputs": [
        {
          "internalType": "uint256[]",
          "name": "",
          "type": "uint256[]"
        }
      ],
      "stateMutability": "view",
      "type": "function"
    }
  ],
  "bytecode": "0x6002600d556107d0600e556000600f8190556010556011805460ff1916600417905560016103c0818152606160f81b6103e0526080908152610400828152603160f91b6104205260a052610440828152606360f81b6104605260c052610480828152601960fa1b6104a05260e0526104c0828152606560f81b6104e05261010052610500828152603360f91b6105205261012052610540828152606760f81b6105605261014052610580828152600d60fb1b6105a052610160526105c0828152606960f81b6105e05261018052610600828152603560f91b610620526101a052610640828152606b60f81b610660526101c052610680828152601b60fa1b6106a0526101e0526106c0828152606d60f81b6106e05261020052610700828152603760f91b6107205261022052610740828152606f60f81b6107605261024052610780828152600760fc1b6107a052610260526107c0828152607160f81b6107e05261028052610800828152603960f91b610820526102a052610840828152607360f81b610860526102c052610880828152601d60fa1b6108a0526102e0526108c0828152607560f81b6108e05261030052610900828152603b60f91b6109205261032052610940828152607760f81b6109605261034052610980828152600f60fb1b6109a052610360526109c0828152607960f81b6109e05261038052610a40604052610a00918252603d60f91b610a20526103a0919091526200022890601290601a620003f0565b503480156200023657600080fd5b50604080518082018252600c81526b141d5b9ac812dd588813919560a21b6020808301918252835180850190945260048452632825aaa160e11b908401528151919291620002879160009162000454565b5080516200029d90600190602084019062000454565b5050601780546001600160a01b031916331790555060408051610140810182526032815260646020820152610190918101919091526101c260608201526101f460808201526102bc60a082015261070860c08201526107d060e0820181905261010082018190526101208201526200031a90601390600a620004df565b5060408051610140810182526032815260646020820152610190918101919091526101c260608201526101f460808201526102bc60a082015261070860c08201526107d060e0820181905261010082018190526101208201526200038390601490600a620004df565b5060408051610140810182526105948082526020820181905291810191909152610595606082018190526080820181905260a0820181905260c08201526107d060e0820152610bb86101008201819052610120820152620003e990601590600a620004df565b5062000641565b82805482825590600052602060002090810192821562000442579160200282015b828111156200044257825180516200043191849160209091019062000454565b509160200191906001019062000411565b50620004509291506200058a565b5090565b828054620004629062000604565b90600052602060002090601f016020900481019282620004865760008555620004d1565b82601f10620004a157805160ff1916838001178555620004d1565b82800160010185558215620004d1579182015b82811115620004d1578251825591602001919060010190620004b4565b5062000450929150620005ab565b82805482825590600052602060002090600f01601090048101928215620004d15791602002820160005b838211156200054b57835183826101000a81548161ffff021916908361ffff160217905550926020019260020160208160010104928301926001030262000509565b80156200057b5782816101000a81549061ffff02191690556002016020816001010492830192600103026200054b565b505062000450929150620005ab565b8082111562000450576000620005a18282620005c2565b506001016200058a565b5b80821115620004505760008155600101620005ac565b508054620005d09062000604565b6000825580601f10620005e1575050565b601f016020900490600052602060002090810190620006019190620005ab565b50565b600181811c908216806200061957607f821691505b602082108114156200063b57634e487b7160e01b600052602260045260246000fd5b50919050565b61382680620006516000396000f3fe608060405234801561001057600080fd5b50600436106101cd5760003560e01c80634f6ccce711610104578063a22cb465116100a2578063d93dfe8811610071578063d93dfe88146103d7578063e985e9c5146103ea578063f2fde38b14610426578063fc8897331461043957600080fd5b8063a22cb4651461038b578063b88d4fde1461039e578063c4ef71c7146103b1578063c87b56dd146103c457600080fd5b806366e33870116100de57806366e338701461034a57806370a082311461035d57806389ce30741461037057806395d89b411461038357600080fd5b80634f6ccce714610311578063621a1f74146103245780636352211e1461033757600080fd5b806318160ddd116101715780632fb098d21161014b5780632fb098d2146102b357806342842e0e146102d6578063438b6300146102e9578063456b72781461030957600080fd5b806318160ddd1461028557806323b872dd1461028d5780632f745c59146102a057600080fd5b806306fdde03116101ad57806306fdde0314610235578063081812fc1461023d578063095ea7b314610268578063098afd4b1461027d57600080fd5b80625ea307146101d25780629a9b7b146101fb57806301ffc9a714610212575b600080fd5b6101e56101e0366004612a34565b610467565b6040516101f291906133b1565b60405180910390f35b61020460105481565b6040519081526020016101f2565b6102256102203660046129c5565b610572565b60405190151581526020016101f2565b6101e5610597565b61025061024b366004612a34565b610629565b6040516001600160a01b0390911681526020016101f2565b61027b61027636600461299b565b6106c3565b005b61027b6107d9565b600854610204565b61027b61029b3660046128a7565b61083a565b6102046102ae36600461299b565b61086b565b6102c66102c1366004612ba9565b610901565b6040516101f294939291906133f2565b61027b6102e43660046128a7565b610ae6565b6102fc6102f7366004612859565b610b01565b6040516101f2919061336d565b61027b610ba3565b61020461031f366004612a34565b610bc1565b6101e5610332366004612a34565b610c54565b610250610345366004612a34565b610cee565b6101e56103583660046129ff565b610d65565b61020461036b366004612859565b610eb2565b6101e561037e3660046129ff565b610f39565b6101e561120a565b61027b61039936600461295f565b611219565b61027b6103ac3660046128e3565b611228565b61027b6103bf366004612a34565b611260565b6101e56103d2366004612a34565b611292565b61027b6103e5366004612a4d565b611351565b6102256103f8366004612874565b6001600160a01b03918216600090815260056020908152604080832093909416825291909152205460ff1690565b61027b610434366004612859565b6114a0565b6102256104473660046129ff565b8051602081830181018051600b8252928201919093012091525460ff1681565b6000818152600c602052604081208054606092919061048590613680565b80601f01602080910402602001604051908101604052809291908181526020018280546104b190613680565b80156104fe5780601f106104d3576101008083540402835291602001916104fe565b820191906000526020600020905b8154815290600101906020018083116104e157829003601f168201915b5050505050905061050e83610cee565b6001600160a01b031661dead6001600160a01b0316141561056c5760115461054a9082906001906105429060ff168261356f565b60ff166114d9565b60405160200161055a9190613307565b60405160208183030381529060405290505b92915050565b60006001600160e01b0319821663780e9d6360e01b148061056c575061056c826115a8565b6060600080546105a690613680565b80601f01602080910402602001604051908101604052809291908181526020018280546105d290613680565b801561061f5780601f106105f45761010080835404028352916020019161061f565b820191906000526020600020905b81548152906001019060200180831161060257829003601f168201915b5050505050905090565b6000818152600260205260408120546001600160a01b03166106a75760405162461bcd60e51b815260206004820152602c60248201527f4552433732313a20617070726f76656420717565727920666f72206e6f6e657860448201526b34b9ba32b73a103a37b5b2b760a11b60648201526084015b60405180910390fd5b506000908152600460205260409020546001600160a01b031690565b60006106ce82610cee565b9050806001600160a01b0316836001600160a01b0316141561073c5760405162461bcd60e51b815260206004820152602160248201527f4552433732313a20617070726f76616c20746f2063757272656e74206f776e656044820152603960f91b606482015260840161069e565b336001600160a01b0382161480610758575061075881336103f8565b6107ca5760405162461bcd60e51b815260206004820152603860248201527f4552433732313a20617070726f76652063616c6c6572206973206e6f74206f7760448201527f6e6572206e6f7220617070726f76656420666f7220616c6c0000000000000000606482015260840161069e565b6107d483836115f8565b505050565b6017546001600160a01b031633146107f057600080fd5b60005b6011546108049060ff16600161356f565b60ff16811015610837576000818152600a6020526040812061082591612644565b8061082f816136dd565b9150506107f3565b50565b6108443382611666565b6108605760405162461bcd60e51b815260040161069e9061348f565b6107d483838361175d565b600061087683610eb2565b82106108d85760405162461bcd60e51b815260206004820152602b60248201527f455243373231456e756d657261626c653a206f776e657220696e646578206f7560448201526a74206f6620626f756e647360a81b606482015260840161069e565b506001600160a01b03919091166000908152600660209081526040808320938352929052205490565b600a602052816000526040600020818154811061091d57600080fd5b90600052602060002090600402016000915091505080600001805461094190613680565b80601f016020809104026020016040519081016040528092919081815260200182805461096d90613680565b80156109ba5780601f1061098f576101008083540402835291602001916109ba565b820191906000526020600020905b81548152906001019060200180831161099d57829003601f168201915b5050505050908060010180546109cf90613680565b80601f01602080910402602001604051908101604052809291908181526020018280546109fb90613680565b8015610a485780601f10610a1d57610100808354040283529160200191610a48565b820191906000526020600020905b815481529060010190602001808311610a2b57829003601f168201915b505050505090806002018054610a5d90613680565b80601f0160208091040260200160405190810160405280929190818152602001828054610a8990613680565b8015610ad65780601f10610aab57610100808354040283529160200191610ad6565b820191906000526020600020905b815481529060010190602001808311610ab957829003601f168201915b5050505050908060030154905084565b6107d483838360405180602001604052806000815250611228565b60606000610b0e83610eb2565b905060008167ffffffffffffffff811115610b2b57610b2b613784565b604051908082528060200260200182016040528015610b54578160200160208202803683370190505b50905060005b82811015610b9b57610b6c858261086b565b828281518110610b7e57610b7e61376e565b602090810291909101015280610b93816136dd565b915050610b5a565b509392505050565b600e546008541015610bb957610bb7611908565b565b610bb7611908565b6000610bcc60085490565b8210610c2f5760405162461bcd60e51b815260206004820152602c60248201527f455243373231456e756d657261626c653a20676c6f62616c20696e646578206f60448201526b7574206f6620626f756e647360a01b606482015260840161069e565b60088281548110610c4257610c4261376e565b90600052602060002001549050919050565b600c6020526000908152604090208054610c6d90613680565b80601f0160208091040260200160405190810160405280929190818152602001828054610c9990613680565b8015610ce65780601f10610cbb57610100808354040283529160200191610ce6565b820191906000526020600020905b815481529060010190602001808311610cc957829003601f168201915b505050505081565b6000818152600260205260408120546001600160a01b03168061056c5760405162461bcd60e51b815260206004820152602960248201527f4552433732313a206f776e657220717565727920666f72206e6f6e657869737460448201526832b73a103a37b5b2b760b91b606482015260840161069e565b60608060005b601154610d7c9060ff16600161356f565b60ff168160ff161015610e89576000610da6610da18660ff851661054286600161356f565b6119fa565b905082600a60008460ff1681526020019081526020016000208260ff1681548110610dd357610dd361376e565b9060005260206000209060040201600101600a60008560ff1681526020019081526020016000208360ff1681548110610e0e57610e0e61376e565b9060005260206000209060040201600001604051602001610e3193929190612dcd565b60408051601f1981840301815291905260115490935060ff838116911614610e765782604051602001610e649190612d01565b60405160208183030381529060405292505b5080610e81816136f8565b915050610d6b565b5080604051602001610e9b919061328e565b604051602081830303815290604052915050919050565b60006001600160a01b038216610f1d5760405162461bcd60e51b815260206004820152602a60248201527f4552433732313a2062616c616e636520717565727920666f7220746865207a65604482015269726f206164647265737360b01b606482015260840161069e565b506001600160a01b031660009081526003602052604090205490565b606080610f44612665565b60005b601154610f589060ff16600161356f565b60ff168160ff1610156111e0576000610f7d610da18760ff851661054286600161356f565b905060005b600a60008460ff1681526020019081526020016000208260ff1681548110610fac57610fac61376e565b9060005260206000209060040201600301548161ffff1610156111cb5760006110c2600a60008660ff1681526020019081526020016000208460ff1681548110610ff857610ff861376e565b9060005260206000209060040201600201805461101490613680565b80601f016020809104026020016040519081016040528092919081815260200182805461104090613680565b801561108d5780601f106110625761010080835404028352916020019161108d565b820191906000526020600020905b81548152906001019060200180831161107057829003601f168201915b505050505083600461109f91906135a8565b61ffff166110ae8560046135a8565b6110b990600461353a565b61ffff166114d9565b905060006110db6110d683600060016114d9565b611ab0565b905060006110ef6110d684600160026114d9565b9050868260ff16601881106111065761110661376e565b60200201518160ff166018811061111f5761111f61376e565b602002015115611131575050506111b9565b8761113f84600260046114d9565b61114b8460ff16611b57565b6111578460ff16611b57565b60405160200161116a9493929190612d26565b60405160208183030381529060405297506001878360ff16601881106111925761119261376e565b60200201518260ff16601881106111ab576111ab61376e565b911515602090920201525050505b806111c3816136bb565b915050610f82565b505080806111d8906136f8565b915050610f47565b50816040516020016111f29190612f63565b60408051601f19818403018152919052949350505050565b6060600180546105a690613680565b611224338383611c55565b5050565b6112323383611666565b61124e5760405162461bcd60e51b815260040161069e9061348f565b61125a84848484611d24565b50505050565b3361126a82610cee565b6001600160a01b03161461127d57600080fd5b61128a3361dead8361175d565b610837611908565b6000818152600260205260409020546060906001600160a01b03166112b657600080fd5b60006112c183610467565b90506112f56040518060400160405280601081526020016f746f6b656e20746f206861736820257360801b81525082611d57565b61134161130184611b57565b61131261130d84610f39565b611d9c565b61131b84610d65565b60405160200161132d93929190612e46565b604051602081830303815290604052611d9c565b604051602001610e9b91906132c2565b6017546001600160a01b0316331461136857600080fd5b60005b81518110156107d457600a600084815260200190815260200160002060405180608001604052808484815181106113a4576113a461376e565b60200260200101516000015181526020018484815181106113c7576113c761376e565b60200260200101516020015181526020018484815181106113ea576113ea61376e565b602002602001015160400151815260200184848151811061140d5761140d61376e565b6020908102919091018101516060015190915282546001810184556000938452928190208251805193946004029091019261144b9284920190612693565b5060208281015180516114649260018501920190612693565b5060408201518051611480916002840191602090910190612693565b506060820151816003015550508080611498906136dd565b91505061136b565b6017546001600160a01b031633146114b757600080fd5b601780546001600160a01b0319166001600160a01b0392909216919091179055565b60608360006114e8858561361a565b67ffffffffffffffff81111561150057611500613784565b6040519080825280601f01601f19166020018201604052801561152a576020820181803683370190505b509050845b8481101561159c578281815181106115495761154961376e565b01602001516001600160f81b03191682611563888461361a565b815181106115735761157361376e565b60200101906001600160f81b031916908160001a90535080611594816136dd565b91505061152f565b509150505b9392505050565b60006001600160e01b031982166380ac58cd60e01b14806115d957506001600160e01b03198216635b5e139f60e01b145b8061056c57506301ffc9a760e01b6001600160e01b031983161461056c565b600081815260046020526040902080546001600160a01b0319166001600160a01b038416908117909155819061162d82610cee565b6001600160a01b03167f8c5be1e5ebec7d5bd14f71427d1e84f3dd0314c0f7b2291e5b200ac8c7c3b92560405160405180910390a45050565b6000818152600260205260408120546001600160a01b03166116df5760405162461bcd60e51b815260206004820152602c60248201527f4552433732313a206f70657261746f7220717565727920666f72206e6f6e657860448201526b34b9ba32b73a103a37b5b2b760a11b606482015260840161069e565b60006116ea83610cee565b9050806001600160a01b0316846001600160a01b031614806117255750836001600160a01b031661171a84610629565b6001600160a01b0316145b8061175557506001600160a01b0380821660009081526005602090815260408083209388168352929052205460ff165b949350505050565b826001600160a01b031661177082610cee565b6001600160a01b0316146117d85760405162461bcd60e51b815260206004820152602960248201527f4552433732313a207472616e73666572206f6620746f6b656e2074686174206960448201526839903737ba1037bbb760b91b606482015260840161069e565b6001600160a01b03821661183a5760405162461bcd60e51b8152602060048201526024808201527f4552433732313a207472616e7366657220746f20746865207a65726f206164646044820152637265737360e01b606482015260840161069e565b611845838383611f04565b6118506000826115f8565b6001600160a01b038316600090815260036020526040812080546001929061187990849061361a565b90915550506001600160a01b03821660009081526003602052604081208054600192906118a7908490613557565b909155505060008181526002602052604080822080546001600160a01b0319166001600160a01b0386811691821790925591518493918716917fddf252ad1be2c89b69c2b068fc378daa952ba7f163c4a11628f55a4df523b3ef91a4505050565b600061191360085490565b9050600d54811061195c5760405162461bcd60e51b815260206004820152601360248201527226b0bc1029bab838363c902932b0b1b432b21760691b604482015260640161069e565b333b1561196857600080fd5b6000611972611fbc565b905061198081336000611fd2565b6000828152600c6020908152604090912082516119a39391929190910190612693565b506001600b600c60008481526020019081526020016000206040516119c89190612e3a565b908152604051908190036020019020805491151560ff199092169190911790556119f2338261214f565b61122461229d565b60008181805b82518160ff161015610b9b576030838260ff1681518110611a2357611a2361376e565b016020015160f81c10801590611a5657506039838260ff1681518110611a4b57611a4b61376e565b016020015160f81c11155b15611a9e57611a66600a836135f1565b91506030838260ff1681518110611a7f57611a7f61376e565b0160200151611a91919060f81c613631565b611a9b908361356f565b91505b80611aa8816136f8565b915050611a00565b6000805b60125460ff82161015611b515782604051602001611ad29190612c91565b6040516020818303038152906040528051906020012060128260ff1681548110611afe57611afe61376e565b90600052602060002001604051602001611b189190612e3a565b604051602081830303815290604052805190602001201415611b3f576115a181600161356f565b80611b49816136f8565b915050611ab4565b50600080fd5b606081611b7b5750506040805180820190915260018152600360fc1b602082015290565b8160005b8115611ba55780611b8f816136dd565b9150611b9e9050600a83613594565b9150611b7f565b60008167ffffffffffffffff811115611bc057611bc0613784565b6040519080825280601f01601f191660200182016040528015611bea576020820181803683370190505b5090505b841561175557611bff60018361361a565b9150611c0c600a86613718565b611c17906030613557565b60f81b818381518110611c2c57611c2c61376e565b60200101906001600160f81b031916908160001a905350611c4e600a86613594565b9450611bee565b816001600160a01b0316836001600160a01b03161415611cb75760405162461bcd60e51b815260206004820152601960248201527f4552433732313a20617070726f766520746f2063616c6c657200000000000000604482015260640161069e565b6001600160a01b03838116600081815260056020908152604080832094871680845294825291829020805460ff191686151590811790915591519182527f17307eab39ab6107e8899845ad3d59bd9653f200f220920489ca2b5937696c31910160405180910390a3505050565b611d2f84848461175d565b611d3b848484846122b0565b61125a5760405162461bcd60e51b815260040161069e9061343d565b6112248282604051602401611d6d9291906133c4565b60408051601f198184030181529190526020810180516001600160e01b0316634b5c427760e01b1790526123bd565b6060815160001415611dbc57505060408051602081019091526000815290565b60006040518060600160405280604081526020016137b16040913990506000600384516002611deb9190613557565b611df59190613594565b611e009060046135d2565b90506000611e0f826020613557565b67ffffffffffffffff811115611e2757611e27613784565b6040519080825280601f01601f191660200182016040528015611e51576020820181803683370190505b509050818152600183018586518101602084015b81831015611ebf5760039283018051603f601282901c811687015160f890811b8552600c83901c8216880151811b6001860152600683901c8216880151811b60028601529116860151901b93820193909352600401611e65565b600389510660018114611ed95760028114611eea57611ef6565b613d3d60f01b600119830152611ef6565b603d60f81b6000198301525b509398975050505050505050565b6001600160a01b038316611f5f57611f5a81600880546000838152600960205260408120829055600182018355919091527ff3f7a9fe364faab93b216da50a3214154f22a0a2b415b23a84c8169e8b636ee30155565b611f82565b816001600160a01b0316836001600160a01b031614611f8257611f8283826123de565b6001600160a01b038216611f99576107d48161247b565b826001600160a01b0316826001600160a01b0316146107d4576107d4828261252a565b60006010546001611fcd9190613557565b905090565b6060600a8210611fe157600080fd5b6040805180820190915260018152600360fc1b602082015260005b60115461200e9060019060ff16613631565b60ff168160ff1610156120e757600f805490600061202b836136dd565b9091555050600f54604080514260208201524491810191909152606080820189905287901b6bffffffffffffffffffffffff191660808201526094810186905260b48101919091526000906127109060d4016040516020818303038152906040528051906020012060001c6120a09190613718565b9050826120b18261ffff168461256e565b6040516020016120c2929190612cad565b60405160208183030381529060405292505080806120df906136f8565b915050611ffc565b50806040516020016120f99190612cdc565b6040516020818303038152906040529050600b8160405161211a9190612c91565b9081526040519081900360200190205460ff1615611755576121478585612142866001613557565b611fd2565b9150506115a1565b6001600160a01b0382166121a55760405162461bcd60e51b815260206004820181905260248201527f4552433732313a206d696e7420746f20746865207a65726f2061646472657373604482015260640161069e565b6000818152600260205260409020546001600160a01b03161561220a5760405162461bcd60e51b815260206004820152601c60248201527f4552433732313a20746f6b656e20616c7265616479206d696e74656400000000604482015260640161069e565b61221660008383611f04565b6001600160a01b038216600090815260036020526040812080546001929061223f908490613557565b909155505060008181526002602052604080822080546001600160a01b0319166001600160a01b03861690811790915590518392907fddf252ad1be2c89b69c2b068fc378daa952ba7f163c4a11628f55a4df523b3ef908290a45050565b6010546122ab906001613557565b601055565b60006001600160a01b0384163b156123b257604051630a85bd0160e11b81526001600160a01b0385169063150b7a02906122f4903390899088908890600401613330565b602060405180830381600087803b15801561230e57600080fd5b505af192505050801561233e575060408051601f3d908101601f1916820190925261233b918101906129e2565b60015b612398573d80801561236c576040519150601f19603f3d011682016040523d82523d6000602084013e612371565b606091505b5080516123905760405162461bcd60e51b815260040161069e9061343d565b805181602001fd5b6001600160e01b031916630a85bd0160e11b149050611755565b506001949350505050565b80516a636f6e736f6c652e6c6f67602083016000808483855afa5050505050565b600060016123eb84610eb2565b6123f5919061361a565b600083815260076020526040902054909150808214612448576001600160a01b03841660009081526006602090815260408083208584528252808320548484528184208190558352600790915290208190555b5060009182526007602090815260408084208490556001600160a01b039094168352600681528383209183525290812055565b60085460009061248d9060019061361a565b600083815260096020526040812054600880549394509092849081106124b5576124b561376e565b9060005260206000200154905080600883815481106124d6576124d661376e565b600091825260208083209091019290925582815260099091526040808220849055858252812055600880548061250e5761250e613758565b6001900381819060005260206000200160009055905550505050565b600061253583610eb2565b6001600160a01b039093166000908152600660209081526040808320868452825280832085905593825260079052919091209190915550565b60606000805b60138460ff166003811061258a5761258a61376e565b015460ff82161015611b5157600060138560ff16600381106125ae576125ae61376e565b018260ff16815481106125c3576125c361376e565b90600052602060002090601091828204019190066002029054906101000a900461ffff1690508261ffff1686101580156126095750612602818461353a565b61ffff1686105b156126245761261a8260ff16611b57565b935050505061056c565b61262e818461353a565b925050808061263c906136f8565b915050612574565b50805460008255600402906000526020600020908101906108379190612717565b6040518061030001604052806018905b61267d612757565b8152602001906001900390816126755790505090565b82805461269f90613680565b90600052602060002090601f0160209004810192826126c15760008555612707565b82601f106126da57805160ff1916838001178555612707565b82800160010185558215612707579182015b828111156127075782518255916020019190600101906126ec565b50612713929150612776565b5090565b8082111561271357600061272b828261278b565b61273960018301600061278b565b61274760028301600061278b565b5060006003820155600401612717565b6040518061030001604052806018906020820280368337509192915050565b5b808211156127135760008155600101612777565b50805461279790613680565b6000825580601f106127a7575050565b601f0160209004906000526020600020908101906108379190612776565b600067ffffffffffffffff8311156127df576127df613784565b6127f2601f8401601f1916602001613509565b905082815283838301111561280657600080fd5b828260208301376000602084830101529392505050565b80356001600160a01b038116811461283457600080fd5b919050565b600082601f83011261284a57600080fd5b6115a1838335602085016127c5565b60006020828403121561286b57600080fd5b6115a18261281d565b6000806040838503121561288757600080fd5b6128908361281d565b915061289e6020840161281d565b90509250929050565b6000806000606084860312156128bc57600080fd5b6128c58461281d565b92506128d36020850161281d565b9150604084013590509250925092565b600080600080608085870312156128f957600080fd5b6129028561281d565b93506129106020860161281d565b925060408501359150606085013567ffffffffffffffff81111561293357600080fd5b8501601f8101871361294457600080fd5b612953878235602084016127c5565b91505092959194509250565b6000806040838503121561297257600080fd5b61297b8361281d565b91506020830135801515811461299057600080fd5b809150509250929050565b600080604083850312156129ae57600080fd5b6129b78361281d565b946020939093013593505050565b6000602082840312156129d757600080fd5b81356115a18161379a565b6000602082840312156129f457600080fd5b81516115a18161379a565b600060208284031215612a1157600080fd5b813567ffffffffffffffff811115612a2857600080fd5b61175584828501612839565b600060208284031215612a4657600080fd5b5035919050565b60008060408385031215612a6057600080fd5b8235915060208084013567ffffffffffffffff80821115612a8057600080fd5b818601915086601f830112612a9457600080fd5b813581811115612aa657612aa6613784565b8060051b612ab5858201613509565b8281528581019085870183870188018c1015612ad057600080fd5b600093505b84841015612b9757803586811115612aec57600080fd5b87016080818e03601f19011215612b0257600080fd5b612b0a6134e0565b8982013588811115612b1b57600080fd5b612b298f8c83860101612839565b825250604082013588811115612b3e57600080fd5b612b4c8f8c83860101612839565b8b83015250606082013588811115612b6357600080fd5b612b718f8c83860101612839565b604083015250608091909101356060820152835260019390930192918701918701612ad5565b50809750505050505050509250929050565b60008060408385031215612bbc57600080fd5b50508035926020909101359150565b60008151808452612be3816020860160208601613654565b601f01601f19169290920160200192915050565b8054600090600181811c9080831680612c1157607f831692505b6020808410821415612c3357634e487b7160e01b600052602260045260246000fd5b818015612c475760018114612c5857612c85565b60ff19861689528489019650612c85565b60008881526020902060005b86811015612c7d5781548b820152908501908301612c64565b505084890196505b50505050505092915050565b60008251612ca3818460208701613654565b9190910192915050565b60008351612cbf818460208801613654565b835190830190612cd3818360208801613654565b01949350505050565b60008251612cee818460208701613654565b600360fc1b920191825250600101919050565b60008251612d13818460208701613654565b600b60fa1b920191825250600101919050565b60008551612d38818460208a01613654565b6d3c7265637420636c6173733d276360901b9083019081528551612d6381600e840160208a01613654565b642720783d2760d81b600e92909101918201528451612d89816013840160208901613654565b642720793d2760d81b601392909101918201528351612daf816018840160208801613654565b6213979f60e91b60189290910191820152601b019695505050505050565b60008451612ddf818460208901613654565b6e3d913a3930b4ba2fba3cb832911d1160891b908301908152612e05600f820186612bf7565b6a1116113b30b63ab2911d1160a91b81529050612e25600b820185612bf7565b61227d60f01b81526002019695505050505050565b60006115a18284612bf7565b727b226e616d65223a202250756e6b4b7562202360681b81528351600090612e75816013850160208901613654565b7f222c20226465736372697074696f6e223a202231302c30303020756e697175656013918401918201527f2050756e6b4b756220313030252067656e657261746564206f6e2073746f726560338201527f206f6e2d636861696e2e222c2022696d616765223a2022646174613a696d6167605382015270194bdcdd99cade1b5b0ed8985cd94d8d0b607a1b60738201528451612f18816084840160208901613654565b6e11161130ba3a3934b13aba32b9911d60891b608492909101918201528351612f48816093840160208801613654565b607d60f81b6093929091019182015260940195945050505050565b7f3c7376672069643d226d6f7573652d7376672220786d6c6e733d22687474703a81527f2f2f7777772e77332e6f72672f323030302f737667222070726573657276654160208201527f7370656374526174696f3d22784d696e594d696e206d6565742220766965774260408201526f037bc1e9118101810191a10191a111f160851b606082015260008251613000816070850160208701613654565b7f3c7374796c653e726563747b77696474683a3170783b6865696768743a31707860709390910192830152507f3b7d20236d6f7573652d7376677b73686170652d72656e646572696e673a206360908201527f7269737065646765733b7d202e6330307b66696c6c3a233030303030307d2e6360b08201527f30317b66696c6c3a233231616230397d2e6330327b66696c6c3a23666666666660d08201527f667d2e6330337b66696c6c3a236661363539377d2e6330347b66696c6c3a236560f08201527f33643330377d2e6330357b66696c6c3a236230616230367d2e6330367b66696c6101108201527f6c3a233231383031317d2e6330377b66696c6c3a236538333533357d2e6330386101308201527f7b66696c6c3a233133376465397d2e6330397b66696c6c3a233538636666667d6101508201527f2e6331307b66696c6c3a233565666635387d2e6331317b66696c6c3a236666666101708201527f3635387d2e6331327b66696c6c3a236666353865307d2e6331337b66696c6c3a6101908201527f236130396439647d2e6331347b66696c6c3a233032303466387d2e6331357b666101b08201527f696c6c3a236566366432637d2e6331367b66696c6c3a236261636564637d2e636101d08201527f31377b66696c6c3a236530653065307d2e6331387b66696c6c3a2336343236306101f08201527f307d2e6331397b66696c6c3a233661333631377d2e6332307b66696c6c3a23616102108201527f30346431627d2e6332317b66696c6c3a236364626134377d2e6332327b66696c6102308201527f6c3a236637643630647d2e6332337b66696c6c3a233834353533387d3c2f7374610250820152693cb6329f1e17b9bb339f60b11b61027082015261027a01919050565b605b60f81b8152600082516132aa816001850160208701613654565b605d60f81b6001939091019283015250600201919050565b7f646174613a6170706c69636174696f6e2f6a736f6e3b6261736536342c0000008152600082516132fa81601d850160208701613654565b91909101601d0192915050565b603160f81b815260008251613323816001850160208701613654565b9190910160010192915050565b6001600160a01b038581168252841660208201526040810183905260806060820181905260009061336390830184612bcb565b9695505050505050565b6020808252825182820181905260009190848201906040850190845b818110156133a557835183529284019291840191600101613389565b50909695505050505050565b6020815260006115a16020830184612bcb565b6040815260006133d76040830185612bcb565b82810360208401526133e98185612bcb565b95945050505050565b6080815260006134056080830187612bcb565b82810360208401526134178187612bcb565b9050828103604084015261342b8186612bcb565b91505082606083015295945050505050565b60208082526032908201527f4552433732313a207472616e7366657220746f206e6f6e20455243373231526560408201527131b2b4bb32b91034b6b83632b6b2b73a32b960711b606082015260800190565b60208082526031908201527f4552433732313a207472616e736665722063616c6c6572206973206e6f74206f6040820152701ddb995c881b9bdc88185c1c1c9bdd9959607a1b606082015260800190565b6040516080810167ffffffffffffffff8111828210171561350357613503613784565b60405290565b604051601f8201601f1916810167ffffffffffffffff8111828210171561353257613532613784565b604052919050565b600061ffff808316818516808303821115612cd357612cd361372c565b6000821982111561356a5761356a61372c565b500190565b600060ff821660ff84168060ff0382111561358c5761358c61372c565b019392505050565b6000826135a3576135a3613742565b500490565b600061ffff808316818516818304811182151516156135c9576135c961372c565b02949350505050565b60008160001904831182151516156135ec576135ec61372c565b500290565b600060ff821660ff84168160ff04811182151516156136125761361261372c565b029392505050565b60008282101561362c5761362c61372c565b500390565b600060ff821660ff84168082101561364b5761364b61372c565b90039392505050565b60005b8381101561366f578181015183820152602001613657565b8381111561125a5750506000910152565b600181811c9082168061369457607f821691505b602082108114156136b557634e487b7160e01b600052602260045260246000fd5b50919050565b600061ffff808316818114156136d3576136d361372c565b6001019392505050565b60006000198214156136f1576136f161372c565b5060010190565b600060ff821660ff81141561370f5761370f61372c565b60010192915050565b60008261372757613727613742565b500690565b634e487b7160e01b600052601160045260246000fd5b634e487b7160e01b600052601260045260246000fd5b634e487b7160e01b600052603160045260246000fd5b634e487b7160e01b600052603260045260246000fd5b634e487b7160e01b600052604160045260246000fd5b6001600160e01b03198116811461083757600080fdfe4142434445464748494a4b4c4d4e4f505152535455565758595a6162636465666768696a6b6c6d6e6f707172737475767778797a303132333435363738392b2fa2646970667358221220079e543d65fea1a25fe76b7d16f7a9dfe2999c89d44f4d97a29e17742b7999ef64736f6c63430008070033",
  "linkReferences": {},
  "deployedLinkReferences": {}
}